:020000040800F2
:1000000000000120E5260008C9230008CD230008D0
:10001000D1230008D5230008D923000800000000E0
:10002000000000000000000000000000DD230008C8
:10003000E123000800000000E5230008E923000890
:100040003527000835270008352700083527000820
:100050003527000835270008352700083527000810
:100060003527000835270008352700083527000800
:1000700035270008352700083527000835270008F0
:1000800035270008352700083527000835270008E0
:1000900035270008352700083527000835270008D0
:1000A00035270008352700083527000835270008C0
:1000B0003527000800000000000000003527000878
:1000C0003527000800000000000000003527000868
:1000D00000000000ED2300085D250008000000007E
:1000E0003527000835270008000000000000000048
:1000F0000000000000000000000000000000000000
:10010000000000000000000000000000352700088B
:100110000000000000000000352700083527000817
:10012000352700083527000835270008352700083F
:10013000352700080000000000000000000000005B
:10014000352700083527000835270008352700081F
:10015000352700083527000835270008352700080F
:100160003527000835270008352700080000000063
:1001700035270008352700080000000000000000B7
:0C01800035270008352700083527000847
:1001900010B5054C237833B9044B13B10448AFF3C1
:1001A00000800123237010BD0C000020000000001F
:1001B0009027000808B5034B1BB103490348AFF370
:1001C000008008BD000000001000002090270008FB
:1001D00053B94AB9002908BF00281CBF4FF0FF31AE
:1001E0004FF0FF3000F074B9ADF1080C6DE904CEAA
:1001F00000F006F8DDF804E0DDE9022304B0704702
:100200002DE9F047089D04468E46002B4DD18A42C9
:10021000944669D9B2FA82F252B101FA02F3C2F1FC
:10022000200120FA01F10CFA02FC41EA030E94408D
:100230004FEA1C48210CBEFBF8F61FFA8CF708FBAE
:1002400016E341EA034306FB07F199420AD91CEB86
:10025000030306F1FF3080F01F81994240F21C81B8
:10026000023E63445B1AA4B2B3FBF8F008FB103300
:1002700044EA034400FB07F7A7420AD91CEB040435
:1002800000F1FF3380F00A81A74240F20781644405
:10029000023840EA0640E41B00261DB1D44000238A
:1002A000C5E900433146BDE8F0878B4209D9002DEE
:1002B00000F0EF800026C5E9000130463146BDE878
:1002C000F087B3FA83F6002E4AD18B4202D38242E2
:1002D00000F2F980841A61EB030301209E46002D91
:1002E000E0D0C5E9004EDDE702B9FFDEB2FA82F2E6
:1002F000002A40F09280A1EB0C014FEA1C471FFA44
:100300008CFE0126200CB1FBF7F307FB131140EA2A
:1003100001410EFB03F0884208D91CEB010103F1F7
:10032000FF3802D2884200F2CB804346091AA4B2B9
:10033000B1FBF7F007FB101144EA01440EFB00FE8D
:10034000A64508D91CEB040400F1FF3102D2A645F2
:1003500000F2BB800846A4EB0E0440EA03409CE791
:10036000C6F12007B34022FA07FC4CEA030C20FA3E
:1003700007F401FA06F31C43F9404FEA1C4900FA5E
:1003800006F3B1FBF9F8200C1FFA8CFE09FB1811DB
:1003900040EA014108FB0EF0884202FA06F20BD94E
:1003A0001CEB010108F1FF3A80F08880884240F29E
:1003B0008580A8F102086144091AA4B2B1FBF9F0E2
:1003C00009FB101144EA014100FB0EFE8E4508D9DD
:1003D0001CEB010100F1FF346CD28E456AD9023862
:1003E000614440EA0840A0FB0294A1EB0E01A14247
:1003F000C846A64656D353D05DB1B3EB080261EBB5
:100400000E0101FA07F722FA06F3F1401F43C5E98E
:10041000007100263146BDE8F087C2F12003D840C4
:100420000CFA02FC21FA03F3914001434FEA1C4706
:100430001FFA8CFEB3FBF7F007FB10360B0C43EAF8
:10044000064300FB0EF69E4204FA02F408D91CEBA8
:10045000030300F1FF382FD29E422DD902386344A6
:100460009B1B89B2B3FBF7F607FB163341EA034146
:1004700006FB0EF38B4208D91CEB010106F1FF3895
:1004800016D28B4214D9023E6144C91A46EA00468C
:1004900038E72E46284605E70646E3E61846F8E61E
:1004A0004B45A9D2B9EB020864EB0C0E0138A3E767
:1004B0004646EAE7204694E74046D1E7D0467BE748
:1004C000023B614432E7304609E76444023842E7C0
:1004D000704700BF38B50F4B1B780BB9012038BDF2
:1004E0000D494FF47A720546B2FBF3F30868B0FB8E
:1004F000F3F000F0B1F804460028EFD10F2DEDD84D
:10050000024629464FF0FF3000F046F8034B2046E4
:100510001D6038BD000000200800002004000020FD
:100520000A4A136843F4807310B50320136000F087
:1005300021F80120FFF7CEFF10B10124204610BDA5
:10054000044601F065FE204610BD00BF00200240B9
:10055000034A044B11681B780B441360704700BFBB
:100560002800002000000020014B1868704700BFE1
:10057000280000200749CA6803024FF6FF0003F471
:10058000E0630240134343F0BF6343F40033CB60A6
:10059000704700BF00ED00E01C4BDB68C3F3022393
:1005A00000B5C3F1070EBEF1040F03F1040C28BF20
:1005B0004FF0040EBCF1060F1BD9033B4FF0FF3C7C
:1005C0000CFA03FC22EA0C024FF0FF3C0CFA0EFC82
:1005D00021EA0C019940002841EA02010CDB00F1FC
:1005E0006040090100F56140C9B280F800135DF870
:1005F00004FB00221346E7E7054B00F00F0009015A
:100600000344C9B219765DF804FB00BF00ED00E0B9
:10061000FCEC00E0002808DB044A4109012300F05B
:100620001F0003FA00F042F82100704700E100E0EB
:1006300000280DDB430907490122203300F01F0089
:1006400002FA00F041F82300BFF34F8FBFF36F8F22
:10065000704700BF00E100E00138B0F1807F10D2A8
:1006600010B44FF0E023084C58614FF0F00C84F8C0
:1006700023C00022072110469A615DF8044B1961DE
:1006800070470120704700BF00ED00E090F8253072
:10069000022B06D004220023C26380F824300120FC
:1006A00070470268436C116821F00E0111601168F7
:1006B00021F0010111604FF0010C026C03F01C03EA
:1006C0000CFA03F35360002380F825C080F824302F
:1006D0001846704790F82520022A03D00422C263EE
:1006E000012070470168426C10B50C6824F00E04BC
:1006F0000C600C6824F001040C6002F01C02046C15
:10070000012101FA02F26260826B80F82510002458
:1007100080F8244012B19047204610BD104610BD0D
:100720002DE9F04F0C6885B0002C00F0BF804FF031
:10073000000C624E009163464FF0010B63E0032A08
:1007400040F0AE8002FA0CF26FEA020E076807EA88
:100750000E0E42EA0E0215F4403F02604DD0584F93
:100760003A6E42F001023A663A6E02F001020392DA
:10077000039A23F0030202F1804202F5803203F073
:100780000307D2F808E0BF000F2101FA07F8B0F123
:10079000904F2EEA080E0CD04A49884200F089801A
:1007A000494988420CBF0221072101FA07F74EEAA6
:1007B000070EC2F808E0B2686FEA0A0EEF0254BFF3
:1007C0000EEA02024AEA0202B260F768A90254BFC6
:1007D0000EEA07074AEA0707F7607768AA0354BFDB
:1007E0000EEA07074AEA070777603268E90354BF51
:1007F0000EEA02024AEA02023260013334FA03F2DC
:100800000CF1020C52D00BFA03F818EA040AF4D0E7
:1008100000994D6805F00302571E012F8FD8D0F8BC
:100820000890CF68032101FA0CFE29EA0E0907FAA5
:100830000CF747EA09078760476827EA0808C5F305
:1008400000179F4047EA08076FEA0E0E4760C76827
:10085000009907EA0E088F6807FA0CF747EA0807BD
:10086000022AC76002FA0CF27FF470AF4FEAD30994
:1008700000EB890903F00708D9F8201001910099CD
:100880000F694FEA88080F2107FA08F701FA08F8FC
:10089000019921EA080847EA0807C9F8207055E7D6
:1008A000032101FA0CFE6FEA0E0ED0E705B0BDE899
:1008B000F08F0BFA07F74EEA070E7AE700040140C3
:1008C00000100240000400480008004800296DD0D4
:1008D0002DE9F04F0023364EDFF8DCB04FF00F0962
:1008E0004FF0030A43E058455CD0324FB84214BF82
:1008F0000727022707FA04F4A44513D1346824EA31
:100900000E043460746824EA0E047460F46824EA07
:100910000E04F460B46824EA0E04B460AC6824EAFF
:100920000804AC6004685D000AFA05F54FEAD30CD0
:100930002C4300EB8C0C046003F00704DCF820E08F
:10094000A40009FA04F42EEA0404CCF820408468D8
:1009500024EA05048460446824EA02024260C26812
:1009600022EA0505C560013331FA03F218D00122ED
:100970009A4012EA010EF6D023F0030505F18045F6
:1009800005F5803503F00304D5F808C0A40009FA82
:1009900004F8B0F1904F08EA0C0CA4D10024ABE7A6
:1009A000BDE8F08F012707FA04F4A5E7704700BF00
:1009B0000004014000080048000400480AB18161B9
:1009C00070478162704700BF024B186800F4C06036
:1009D000704700BF00700040B0F5007F0ED01C4A89
:1009E000136803F4C063B3F5806F2DD0136823F44C
:1009F000C06343F4806300201360704714490B68A0
:100A000003F4C063B3F5007F1ED00B68114A12488F
:100A100023F4C06343F400730B601368322202FBBB
:100A200003F34A69A0FB03039B0C500503F1010388
:100A300006D500E023B14A69520503F1FF33F9D42A
:100A4000034B5B695B0501D40020704703207047AE
:100A5000007000400800002083DE1B4330B5204DAD
:100A6000AB6DDB0083B004461CD5FFF7ADFFB0F5DE
:100A7000007F29D0802C13D82FD0A4F17004B4FAB1
:100A800084F4640917490B6823F0070323430B60C0
:100A9000086800F00700001B18BF012003B030BD3C
:100AA0000324EFE7AB6D43F08053AB65AB6D03F010
:100AB00080530193019BFFF787FFAB6DB0F5007F7B
:100AC00023F08053AB65D5D1802C04D9A02C8CBFEA
:100AD00002240124D6E70024D4E70224D2E700BF91
:100AE0000010024000200240284A9368D26813F0A8
:100AF0000C0308D00C2B38D0042B34D0082B2448FE
:100B000018BF00207047214A1168090754BFD2F866
:100B1000942012681F4954BFC2F30322C2F3031288
:100B200051F8220003B30C2B2DD1184BDB6803F0D6
:100B30000303022B25D0164A032B08BF1046134B84
:100B4000D968DA68DB68C3F34163C2F30622C1F3F4
:100B50000211013302FB00F001315B00B0FBF1F048
:100B6000B0FBF3F070470C48704702F00302012A13
:100B7000C9D0064BDB6803F00303022B4FF00000E3
:100B8000D9D10548DBE70020704700BF00100240C4
:100B9000C0E1E400D42700080024F400002800F09D
:100BA00085822DE9F043954A03689568D668044626
:100BB000D80683B005F00C0506F003062ED5002DEF
:100BC00000F025810C2D00F01F81A3698B4F002BB5
:100BD00000F095813B6843F001033B60FFF7C4FCE4
:100BE000804606E0FFF7C0FCA0EB0800022800F2F8
:100BF00096813B689B07F5D53B6843F008033B6053
:100C00003B68226A23F0F00313433B607B68E26990
:100C100023F47F4343EA02237B602368D90700F172
:100C2000C280990723D5042D00F059810C2D00F0C6
:100C30005381E368714E002B00F0DC81336843F48C
:100C400080733360FFF790FC074605E0FFF78CFCEC
:100C5000C01B022800F2638133685B05F6D5736818
:100C6000226923F0F85343EA02637360236819078B
:100C700019D56369614E002B00F01A81D6F89430C3
:100C800043F00103C6F89430FFF76EFC074605E019
:100C9000FFF76AFCC01B022800F24181D6F89430AD
:100CA0009A07F5D523685E073FD5544B9A6DD0005F
:100CB00000F19E819A6D42F080529A659B6D03F01F
:100CC00080530193019B01264D4F3B68D90540F1AC
:100CD000F981A368012B00F09F81052B00F01D8294
:100CE000464FD7F8902022F00102C7F89020D7F89D
:100CF000902022F00402C7F89020002B40F093814E
:100D0000FFF732FC41F28839804606E0FFF72CFC01
:100D1000A0EB0800484500F20281D7F89030980710
:100D2000F4D4002E40F0E0812368990618D5636A58
:100D3000324E002B00F0A581D6F8983043F0010325
:100D4000C6F89830FFF710FC074605E0FFF70CFCEB
:100D5000C01B022800F2E380D6F898309A07F5D538
:100D6000A36A002B00F04281022B00F0F2800C2DD0
:100D700000F08E80214C236823F080732360FFF7FE
:100D8000F3FB054605E0FFF7EFFB401B022800F2EE
:100D9000C680236813F00073F5D1E168194A0A4050
:100DA0001846E26075E0082D78D00C2D74D0636889
:100DB000B3F5803F00F0B780B3F5A02F00F0A0811D
:100DC0000E4F3A6822F480323A603A6822F4802268
:100DD0003A60002B40F0AC80FFF7C6FB804607E08E
:100DE000FFF7C2FBA0EB0800B0F57A7F00F2978016
:100DF0003B689803F4D4236813E700BF0010024057
:100E000000700040FCFFEEFE012E7FF4DEAEA84B2A
:100E10001B68990739D4A64B206A1A68120756BF77
:100E2000D3F894301B681B0903F0F003984200F2DA
:100E300010819F4B1A6842F008021A601A6822F06B
:100E4000F00202431A605A68E16922F47F4242EAE2
:100E500001225A60002D00F04D81FFF745FE944BB2
:100E6000944A9B68C3F30313D35C934A03F01F03B4
:100E700020FA03F31068914A1360FFF72BFB40B987
:100E80002368D9077FF5CDAE8DE7A369002BC2D1CA
:100E9000012003B0BDE8F083032E88D1844A126894
:100EA00092037FF5BEAE6268002A7FF4BAAEEFE728
:100EB000D6F8943023F00103C6F89430FFF754FBC2
:100EC000074604E0FFF750FBC01B022827D8D6F8DE
:100ED00094309B07F6D4E5E6022E7FF4AAAE744A5E
:100EE0001268520502D5E268002AD1D07049206903
:100EF0004A6822F0F85242EA00624A60B7E63B686C
:100F000023F001033B60FFF72FFB80463B68980707
:100F1000B6D5FFF729FBA0EB08000228F6D903207D
:100F200003B0BDE8F083624A136843F48033136072
:100F3000FFF71AFBDFF87881074605E0FFF714FB9F
:100F4000C01BB0F57A7FEAD8D8F800309B03F5D5FE
:100F500051E7574EE26AF36803F00301914200F053
:100F6000EA800C2D94D0524D2B685E0190D42B68F2
:100F700023F080732B60FFF7F7FA064604E0FFF7D3
:100F8000F3FA801B0228CAD82B689801F7D4E968C5
:100F90004B4BE26A206B464E0B401343D4E90D12D3
:100FA00043EA012343EAC263D4E90F120138490836
:100FB00043EA00130139520843EA4153013A43EA34
:100FC0004263EB602B6843F080732B60EB6843F067
:100FD0008073EB60FFF7C8FA044604E0FFF7C4FA39
:100FE000001B02289BD833689901F7D5002050E7F1
:100FF000002669E6336823F480733360FFF7B4FAA0
:10100000074604E0FFF7B0FAC01B022887D8336810
:101010005805F7D423682AE6254AD2F8903043F0E1
:101020000103C2F89030FFF79FFADFF8848007468B
:1010300041F2883905E0FFF797FAC01B48453FF6B3
:101040006EAFD8F890309B07F5D5002E3FF46CAE0C
:101050004AE0FFF703FD00287FF41AAF144B1A682B
:1010600042F008021A601A68216A22F0F0020A436C
:101070001A605A68E16922F47F4242EA01225A600A
:10108000EBE6D6F8983023F00103C6F89830FFF766
:101090006BFA074605E0FFF767FAC01B02283FF628
:1010A0003EAFD6F898309B07F5D459E6012070473B
:1010B00000100240BC2700080400002008000020A7
:1010C0008C809D013B6843F480733B60FFF74CFAD2
:1010D00080463B68DA053FF5FCADFFF745FAA0EB2B
:1010E00008000228F5D91AE7344A936D23F080539B
:1010F000936519E6FFF7B2FC00283FF4AEAEC7E6F1
:1011000003F18043A3F53C331A6842F480221A604D
:101110001A6842F480321A600AE7284BD3F890200C
:1011200042F00402C3F89020D3F8902042F001026C
:10113000C3F8902077E7216B03F070020139B2EB1E
:10114000011F7FF40EAF616B03F4FE42B2EB012F7F
:101150007FF407AFA16B03F07842B2EBC16F7FF46D
:1011600000AFE26B520803F4C001013AB1EB425FF9
:101170007FF4F7AE226C520803F0C063013AB3EB80
:10118000426F7FF4EEAE33689A013FF52FAF3368BC
:1011900043F080733360F36843F08073F360FFF7CC
:1011A000E3F9044605E0FFF7DFF9001B02283FF6EC
:1011B000B6AE33689B01F6D518E700BF00100240B9
:1011C000002800F09F80534A136803F007038B4206
:1011D0002DE9F0410D4604460CD2136823F00703B5
:1011E0000B431360136803F007038B4202D0012006
:1011F000BDE8F08123689E0771D54748A1688268E1
:1012000002F0F002914204D9826822F0F0020A430F
:101210008260DA0726D562683F4B032A1B6865D0D7
:10122000022A6CD0002A71D19B07E0D53A4EB368F0
:1012300023F003031343B360FFF796F941F28838B4
:10124000074604E0FFF790F9C01B40455CD8B3683F
:10125000626803F00C03B3EB820FF3D123689E079F
:1012600006D5A1682C48826802F0F0028A4240D874
:1012700028490A6802F00702AA4209D90A6822F03E
:1012800007022A430A600A6802F00702AA42AED1A6
:101290005D0706D52049E0688A6822F4E0620243CF
:1012A0008A60180707D51C4A2169936823F46053A4
:1012B00043EAC1039360FFF717FC174A174C926883
:1012C0001749C2F303120346A25C164802F01F023C
:1012D000D340BDE8F04100680B60FFF7FBB8D907C9
:1012E000C6D562680C4B032A1B6899D198019DD41E
:1012F0007DE7826822F0F00211438160B8E799032C
:1013000094D474E701207047032071E75F057FF5EF
:101310006EAF8BE70020024000100240BC2700089F
:101320000800002004000020054B064A9B6806497F
:10133000C3F302230868D35C03F01F03D84070474F
:1013400000100240CC27000808000020054B064A88
:101350009B680649C3F3C2230868D35C03F01F03EC
:10136000D840704700100240CC2700080800002039
:10137000F8B5474BDA68920704460F4607D0DA689B
:10138000016802F003028A424BD00120F8BD0068D8
:10139000022857D003284ED00128F6D11B689B079E
:1013A000F4D53B4AD36823F0730318436368013BC9
:1013B00040EA0310D060364D2B6823F080632B6029
:1013C000FFF7D2F8064604E0FFF7CEF8831B022BA6
:1013D0003CD82B681A01F7D4002F39D1D4E9021375
:1013E0002A69DB0622F0784243EA012322F4FE4216
:1013F00013432B61264D2B6843F080632B60FFF76E
:10140000B3F8064604E0FFF7AFF8831B022B1DD8A4
:101410002B681B01F7D52B69A269134300202B61B0
:10142000F8BD002AB1D0DB684268C3F30213013370
:101430009342AAD1BFE71A689503B2D41B68590337
:10144000A3D5AEE71B685E059FD5AAE70320F8BDCC
:10145000012F2B690DD06269A16823F0C063520887
:1014600023F4FE43013A43EA012343EA42632B613A
:10147000C0E72269A16823F4C003520823F4FE43A5
:10148000013A43EA012343EA42532B61B2E700BF2A
:10149000001002402DE9F043036813F4006783B0A5
:1014A00004460CD0C16BB1F5000F00F0FC80B1F523
:1014B000400F00F0FD80002900F0108101279E03FD
:1014C00059D59A4B9A6DD50040F1E1804FF0000854
:1014D000974D2B6843F480732B60FFF745F8064661
:1014E00005E0FFF741F8831B022B00F2EB802B682D
:1014F000D805F6D5B7BB8D4DD5F8903013F44073B1
:1015000027D0226D9A4225D0D5F89010D5F890308A
:1015100043F48033C5F89030D5F8903023F480330D
:10152000C5F8903021F44073C907C5F8903040F1F8
:10153000FA80FFF719F841F28839064605E0FFF70F
:1015400013F8801B484500F2BD80D5F890309B070A
:10155000F5D5236D7549D1F8902022F440721343DC
:10156000C1F89030B8F1000F04D0704A936D23F0A9
:10157000805393652368DE0708D56C49206AD1F84B
:10158000882022F003020243C1F888209D0708D575
:101590006649606AD1F8882022F00C020243C1F843
:1015A0008820980608D56149A06AD1F8882022F4DD
:1015B00040620243C1F88820990508D55B49606BF9
:1015C000D1F8882022F440220243C1F888205A052D
:1015D00008D55649A06BD1F8882022F44012024366
:1015E000C1F888205E0608D55049E06AD1F8882005
:1015F00022F440520243C1F88820DD0508D54B494A
:10160000206BD1F8882022F440320243C1F88820B0
:1016100098040ED54549206CD1F8882022F040620C
:101620000243B0F1006FC1F888204DD0B0F1806F57
:1016300064D059030ED53D49606CD1F8882022F062
:1016400040620243B0F1006FC1F8882041D0B0F190
:10165000806F5CD05A040BD53448A16CD0F8882038
:1016600022F040520A43B1F1805FC0F888203CD09C
:101670001B0408D52D4AE16CD2F8883023F0804352
:101680000B43C2F88830384603B0BDE8F0839A6D4A
:1016900042F080529A659B6D03F080530193019B49
:1016A0004FF0010814E72148C26842F48032C2605A
:1016B0001E48D0F8882022F440021143C0F8881058
:1016C0000027FCE603274DE7CA6842F48012CA608F
:1016D000AFE7CA6842F48012CA60BBE70430FFF784
:1016E00047FE0746E0B12368E9E60221201DFFF727
:1016F0003FFE23680028BBD00746B9E70121201D23
:10170000FFF736FE2368002893D0074691E70121B2
:10171000201DFFF72DFE236800289BD0074699E780
:10172000E16B2368C4E7134614E700BF00100240D2
:1017300000700040B8B138B52422036882671A6887
:101740000025044622F001021A601D605D609D6064
:1017500000F00CFE84F87450C4F880502846A56749
:10176000E567256638BD0120704700BF704700BFA0
:1017700008B5806A0023A0F85A30A0F8523000F073
:1017800019FD08BD704700BF0368DA69196840F6A3
:101790000F0C12EA0C0F70B59D6804464ED19606E8
:1017A00002D58E0600F1E280206E012824D0D602F8
:1017B00002D5680200F1DF80160614D4500601D568
:1017C0004A0600D470BD53E8002F22F0400243E8DF
:1017D00000210029F7D120220023A267A36620461A
:1017E000FFF7C4FF70BD0D06E8D5A36E002BE9D04E
:1017F0002046BDE870401847D606D8D5C806D6D5CD
:1018000010221A629A68510640F1D280206F016856
:101810004A6892B2002AD5D0B4F858509542D1D92E
:10182000A4F85A200A68920640F1F680B4F85A10DB
:10183000691A204689B2FFF7A5FF70BD914805F0EF
:10184000010608403043AFD0D50709D5C80507D5F4
:1018500001201862D4F8800040F00100C4F8800034
:1018600095077ED58EB102201862D4F8800040F032
:101870000400C4F88000500707D504201862D4F88B
:10188000800040F00200C4F8800010070BD501F082
:101890002000304307D008201862D4F8800040F0C0
:1018A0000800C4F8800016050AD54D0108D54FF48C
:1018B00000601862D4F8800040F02000C4F8800076
:1018C000D4F8800000283FF47DAF900606D5890645
:1018D00004D5626E12B1204690472368D4F8805038
:1018E0009A6805F0280502F04002154300F0C48014
:1018F00053E8002F22F4907243E800210029F7D129
:1019000003F1080252E8002F22F0010203F108005F
:1019100040E800210029F3D1226E012A33D00022B1
:101920002021E1672266996862664A063CD503F188
:10193000080252E8002F22F0400203F1080040E8BC
:1019400000210029F3D1206F70B34F4B8363FEF762
:10195000C1FE00283FF436AF206FBDE87040836BB6
:101960001847550791D5002E87D18EE7436E002B7F
:101970007FF43FAF26E74FF4801220461A62BDE89D
:10198000704000F0C5BA53E8002F22F0100243E87F
:1019900000210029C3D053E8002F22F0100243E8B1
:1019A00000210029EFD1BAE7204600F003FC70BD0A
:1019B000B4F85A10B4F85A2092B289B2002A3FF40F
:1019C00001AFB4F85820511A89B200293FF4FAAE99
:1019D00053E8002F22F4907243E800200028F7D14A
:1019E00003F1080252E8002F22F0010203F108057A
:1019F00045E800200028F3D12022E26760662066D7
:101A000053E8002F22F0100243E800200028F7D10D
:101A10002046FFF7B7FE70BD53E8002F22F4807216
:101A200043E800210029F7D103F1080252E8002F12
:101A300022F0010203F1080545E800210029F3D155
:101A400003F1080252E8002F22F0400203F10805DA
:101A500045E800210029F3D12022E267216653E8FE
:101A6000002F22F0100243E800210029F7D1FEF7F1
:101A70000DFEB4F85850D9E6204600F09BFBC4F8A0
:101A8000805070BD200100047117000838B504466D
:101A90000268836800696169156803430B43E06964
:101AA0007749034329400B4313605368E16823F4EB
:101AB00040530B43734953608A42A369916831D004
:101AC000256A21F430612B430B436F4993608A42AE
:101AD00007D06E4B9A4261D001200022C4E919223E
:101AE00038BD6B4BD3F8883003F00303013B022B66
:101AF00076D9B0F5004F00F0BB80FFF727FC30B37C
:101B000062684FF6EF7300EB5200B0FBF2F2A2F105
:101B100010019942E0D82368DA600022C4E9192252
:101B2000002038BD21F430610B4359489360D0F850
:101B3000883003F44063B3F5006F75D00CD8002BE8
:101B400051D0B3F5806FC7D1FEF7CEFF48B9002260
:101B5000C4E91922002038BDB3F5406FBCD14FF461
:101B60000040626802EB42038342B5D8B0EB023F0B
:101B7000B2D8002553084FF4807C2946E0FB0C3195
:101B800018462B46FEF724FB424AA0F540719142CD
:101B90000346A1D822682846D3609EE73C4B3E4AC4
:101BA000D3F8883003F00C03D35CB0F5004F1DD0A0
:101BB000082B91D801A252F823F000BF231C000883
:101BC000FB1A00082D1C0008D91A00081D1C00086B
:101BD000D91A0008D91A0008D91A0008311C0008BF
:101BE0002E4AD35CE1E7FFF79FFBAFE7082B3FF6F8
:101BF00073AF01A252F823F0371C0008711C0008D3
:101C0000771C0008D91A00086B1C0008D91A0008B4
:101C1000D91A0008D91A00087B1C0008FEF764FFD7
:101C20006DE7FFF781FB6AE71D489AE71C4867E705
:101C30004FF4004064E7FFF777FB002887D04300AC
:101C400062684FF6EF7103EB5203B3FBF2F3A3F1BB
:101C500010028A423FF640AF23F00F02216892B291
:101C6000C3F342031343CB6071E7FEF73DFFE4E7A4
:101C7000FFF76CFBE1E70B4BE2E74FF48033DFE764
:101C8000F369FFEF0080004000380140004400404D
:101C900000100240FFFC0F00AC270008A827000836
:101CA0000024F4000048E801436ADA0710B406D5BE
:101CB0000168846A4A6822F4003222434A609C0721
:101CC00006D50168C46A4A6822F4803222434A6019
:101CD000590706D50168046B4A6822F48022224322
:101CE0004A601A0706D50168446B4A6822F400422C
:101CF00022434A60DC0606D50168846B8A6822F4B8
:101D0000805222438A60990606D50168C46B8A68AE
:101D100022F4005222438A605A0609D50168046CF5
:101D20004A6822F480122243B4F5801F4A600BD027
:101D30001B0606D50268816C536823F400230B430D
:101D400053605DF8044B70474A68446C22F4C0024B
:101D500022434A60ECE700BF2DE9F843DDF820801C
:101D6000046807460E4615469946B8F1FF3F0AD16A
:101D7000E36936EA03030CBF012300239D42F7D039
:101D80000020BDE8F883E36936EA03030CBF0123B2
:101D90000023AB42F4D1FEF7E7FBA0EB090040457E
:101DA00031D8B8F1000F2ED03C682368590722467D
:101DB000DBD5E3691B05D8D54FF40063236254E8F3
:101DC000003F23F4D07344E8003139B152E8003FBA
:101DD00023F4D07342E800310029F7D102F108035F
:101DE00053E8003F23F0010302F1080040E800310E
:101DF0000029F3D12023BB6787F87410FB67032009
:101E0000C7F88030BDE73A6852E8003F23F4D0734A
:101E100042E800310029F7D102F1080353E8003FFE
:101E200023F0010302F1080040E800310029F3D15A
:101E30002023BB6787F87410FB670320A1E700BF6E
:101E4000002862D070B5836F82B00446002B49D061
:101E500022682423A367136823F00103204613603C
:101E6000FFF714FE01283AD0636A002B33D12368B0
:101E7000596821F490415960996821F02A019960CC
:101E80001968002541F001011960C4F88050FEF77F
:101E90006BFB23681A68120706460CD41B685B07A5
:101EA00025D400232022A26784F87430E267184604
:101EB000236602B070BD6FF07E4300932A4603464E
:101EC0004FF400112046FFF747FFE0B923681B6875
:101ED0005B070CD4E5E72046FFF7E6FEC7E70120E5
:101EE00002B070BD80F8743000F0AAF9B0E76FF06E
:101EF0007E430093002233464FF480012046FFF7D3
:101F00002BFF0028CDD00320D3E70120704700BF6E
:101F1000704700BF0000000000B599B044220021C6
:101F200006A800F02DFC00234FF40070CDE900332B
:101F3000CDE902330493FEF74FFD00B1FEE79FEDBC
:101F4000167B8DED107B9FED167B8DED127B9FED4B
:101F5000167B02234FF48071102206A80693169375
:101F60008DED147B09910A92FEF718FE034600B12D
:101F7000FEE79FED0F7B8DED007B9FED0F7B042136
:101F800068468DED027B0493FFF71AF910B919B07A
:101F90005DF804FBFEE700BF020000000200000045
:101FA000030000001E000000070000000200000007
:101FB0000F0000000300000000000000000000000F
:101FC0002DE9804800248BB0FEF7AAFAFFF7A4FFA2
:101FD000CDE90444CDE906446B4B0894D96C6B4EB3
:101FE0006B4D6C4F41F00401D964D96C01F00401D0
:101FF00000910099D96C41F00101D964D96C01F0CC
:10200000010101910199D96C41F00201D964D96CA7
:1020100001F0020102910299D96C41F08001D9646A
:10202000DB6C03F080032246039310214FF09040B5
:10203000039BFEF7C3FC224630213046FEF7BEFC70
:102040004FF4404203235448069404A9CDE90423E5
:10205000FEF766FB49F6E212032304A94FF0904015
:10206000CDE904234FF0000A4FF0000B0694FEF771
:1020700057FB1022012304A94FF09040CDE904231F
:10208000CDE906ABFEF74CFBC122032304A9304681
:10209000CDE904230694FEF743FB0123022204A9A1
:1020A000304606930023CDE90423FEF739FB3022A6
:1020B000012304A93046CDE90423CDE906ABFEF7A0
:1020C0002FFB032335480694082204A9CDE90423F5
:1020D0004FF00C09FEF724FB4FF40048304B6C62C4
:1020E0002846C5E90174C5E90344C5E90594C5E975
:1020F00007842B60FFF7A4FE90B92A4C2A4BA061FD
:10210000C4E90170C4E90300C4E908002046C4F82A
:102110001490C4F81C802360FFF792FE08B1FEE71C
:10212000FEE72846FFF706FB2046FFF703FB33696F
:1021300013F0020F1D4B21D103221A716F606760EB
:10214000012213481A73FFF77BFE1648FFF778FE4B
:10215000134A154B91680D4841F0010191601168D7
:1021600041F4907111609A6842F001029A601A6815
:10217000102442F490721A608461FEE70C4A6A608F
:10218000022119716260DBE7001002400004004880
:1021900068020020C0C62D0000080048001C00484E
:1021A00000380140EC0200200044004030000020D4
:1021B00000127A00104B984210B419D00F4B98427D
:1021C00002D05DF8044B70470D490E4C0A68036855
:1021D00042F0040200200A6020709A685DF8044B07
:1021E00042F001029A601A6842F490721A607047D5
:1021F0000349054CEAE700BFEC020020680200201A
:102200002C0000205401002040000020FEE700BF09
:102210000A4B1A6E42F001021A661A6E82B002F080
:1022200001020092009A9A6D42F080529A659B6D6D
:1022300003F080530193019B02B0704700100240ED
:1022400010B504469EB00021542209A8CDE904111E
:10225000CDE90611089100F093FA2368404A9342B1
:1022600004D0404A934234D01EB010BD012309A8C7
:102270000993FFF70FF900285DD13B4B1A6E42F42A
:1022800080421A661A6E02F480420092009ADA6C5A
:102290009FED2D7B42F00102DA64DB6C8DED047B57
:1022A0009FED2B7B03F00103019304A907234FF05B
:1022B00090408DED067B0893019AFEF731FA0022DB
:1022C00011462520FEF768F92520FEF7A3F91EB078
:1022D00010BD022309A80993FFF7DCF870BB224B5D
:1022E0009A6D42F400329A659A6D02F400320292BD
:1022F000029ADA6C9FED187B42F00102DA64DB6C23
:102300008DED047B9FED127B03F00103039304A981
:1023100007234FF090408DED067B0893039AFEF75C
:10232000FFF9002211462620FEF736F92620FEF797
:1023300071F91EB010BDFFF769FF9EE7FFF766FF5A
:10234000CDE700BFAFF300800006000002000000F0
:1023500000000000030000000C000000020000006C
:1023600000380140004400400010024008B5144A03
:102370000368934203D0134A934211D008BD02F57B
:1023800058424FF09040136E23F4804313664FF48D
:10239000C061FEF79BFABDE808402520FEF748B96A
:1023A00002F5E6324FF09040936D23F400339365CD
:1023B0000C21FEF78BFABDE808402620FEF738B95D
:1023C0000038014000440040704700BFFEE700BFF6
:1023D000FEE700BFFEE700BFFEE700BF704700BF9B
:1023E000704700BF704700BFFEF7B2B8554803689A
:1023F000DA69910607D4DA69520702D504221A6213
:102400007047FFF7C1B9504A504BB2F824C01A7850
:102410004F490220013A5FFA8CFC0860082A27D84D
:10242000DFE802F05D6446494C532A053A00494909
:102430001A796244D2B21A715A88013A92B25A8019
:1024400091F8102152B191F81021013AD2B281F8DD
:10245000102191F810210AB981F805C05A8892B26A
:102460004AB99A79012A5BD000229A601A707047A3
:10247000BCF1FF0F62D0704708221A709A79012AC6
:102480003ED09A79012AD2D1BCF1120F314904BF52
:10249000022281F81021CBE71FFA8CF20721197074
:1024A0005A801A7994445FFA8CFC83F804C0704710
:1024B00004221A70704705221A70704706221FFA0C
:1024C0008CFC1A70A3F802C0704707221A705A8851
:1024D00002EB0C2C1FFA8CFCA3F802C07047BCF175
:1024E000FF0F0CBF022200221A707047BCF1FD0FD3
:1024F0001FD00921012219709A7183F804C0704716
:10250000BCF1920FBDD1588880B2033802F1553228
:1025100082FB0012A2EBE0720E49D2B24A7187E749
:102520001A79FF2AA0D00C490A6842F002020A6018
:102530009AE70321022219709A71704701221A70DA
:10254000704700BF6802002000380140540100209D
:1025500030000020400000202C0000204848036884
:10256000DA69910607D4DA69520702D504221A62A1
:102570007047FFF709B9434A434BB2F824C01A78B1
:1025800042490220013A5FFA8CFC0860082A26D8EA
:10259000DFE802F0353C465A495005072900082279
:1025A0001A701A7994445FFA8CFC83F804C05A8834
:1025B000013A92B25A805A8892B29AB9597901294D
:1025C00045D95A79013AD2B25A719A79012A45D03D
:1025D0004FF0904200201021187091617047BCF1BB
:1025E000FF0F49D070471FFA8CF2072119705A80EB
:1025F0001A7994445FFA8CFC83F804C07047BCF1EC
:10260000FF0F0CBF022200221A707047BCF1FD0FB1
:102610002DD00921012219709A7183F804C07047E6
:1026200004221A70704706221FFA8CFC1A70A3F855
:1026300002C0704707221A705A8802EB0C2C1FFA4E
:102640008CFCA3F802C0704705221A7070474FF047
:1026500090414FF4801088619A60B6E71A79FF2A9A
:10266000B6D00B490A6842F002020A60B0E70321C3
:10267000022219709A71704701221A70704700BFC8
:10268000EC02002000440040400000203000002008
:102690002C0000201149124BD1F8882042F470021E
:1026A00010B4C1F888201A68002042F001021A60B4
:1026B00098601A6822F0A8524FF4805422F4102235
:1026C0001A60DC601A684FF0006422F480221A60FD
:1026D00098618C605DF8044B704700BF00ED00E02E
:1026E00000100240DFF834D0FFF7D4FF0C480D494A
:1026F0000D4A002302E0D458C4500433C4188C425D
:10270000F9D30A4A0A4C002301E013600432A242C2
:10271000FBD300F011F8FFF753FCFEE700000120A7
:10272000000000200C000020142800080C000020ED
:1027300070030020FEE7000070B50D4D0D4C641BCA
:10274000A4100026A64209D10B4D0C4C00F020F835
:10275000641BA4100026A64205D170BD55F8043BA9
:1027600098470136EEE755F8043B98470136F2E703
:102770000C2800080C2800080C2800081028000865
:1027800002440346934200D1704703F8011BF9E766
:10279000F8B500BFF8BC08BC9E467047F8B500BF4E
:0827A000F8BC08BC9E4670471E
:1027A800040208000010101004101010021010107D
:1027B80008000000000000000000000001020304FF
:1027C800060708090000000001020304A0860100B2
:1027D800400D0300801A060000350C0040420F002F
:1027E80080841E0000093D0000127A000024F400D5
:0C27F80000366E010048E801006CDC02B5
:08280400FCD9FF7F0100000078
:04280C00B50100080A
:04281000910100082A
:0C281400010000001000000000093D0061
:04000005080026E5E4
:00000001FF
